:020000040800F2
:10000000A06C0020850200080F4600086D3F000824
:100010000D460008CB100008B15300080000000096
:10002000000000000000000000000000C501000802
:10003000151200080000000021020008D549000840
:100040009F0200089F0200089F0200089F0200080C
:100050009F0200089F0200089F0200089F020008FC
:100060009F0200089F0200089F0200089F020008EC
:100070009F0200089F0200089F0200089F020008DC
:100080004D1100089F0200089F020008D9100008C7
:10009000CD1000089F0200089F0200089F02000880
:1000A0009F0200089F0200089F0200089F020008AC
:1000B0009F0200089F0200089F0200089F0200089C
:1000C0009F0200089F0200089F0200089F0200088C
:1000D0009F020008BD520008D55200089F02000888
:1000E0009F0200089F0200089F0200089F0200086C
:1000F0009F020008B14A00089F0200089F02000802
:100100009F0200089F0200089F0200089F0200084B
:100110009F0200089F0200089F0200089F0200083B
:100120009F02000859110008651100089F0200088D
:100130009F0200089F0200089F020008F1100008BB
:10014000E51000089F0200089F0200089F020008B7
:100150009F0200089F0200089F020008A5530008A4
:100160009F0200089F0200089F0200089F020008EB
:100170009F0200089F0200089F0200080000000084
:100180009F0200089F020008314E00083D4E000803
:100190009F0200089F0200089F0200089F020008BB
:1001A00000000000000000009F020008DFF810D0EF
:1001B00000F0D8FE00480047F1B90008AFF3008016
:1001C000A06C00202C4B19680868B0E8F04F80F351
:1001D0000988BFF36F8F4FF0000080F311887047DC
:1001E0000000000008480068006880F308884FF0AD
:1001F000000080F3148862B661B6BFF34F8FBFF37F
:100200006F8F00DF00BF00BF08ED00E0DFF80C00DB
:10021000016841F470010160704700BF88ED00E0A3
:10022000EFF30980BFF36F8F134B1A681EF0100FA6
:1002300008BF20ED108A20E9F04F106009B44FF09C
:10024000500080F31188BFF34F8FBFF36F8F0EF014
:100250007BFE4FF0000080F3118809BC1968086824
:10026000B0E8F04F1EF0100F08BFB0EC108A80F31A
:100270000988BFF36F8F7047A4000020EFF305805B
:10028000704700000648804706480047FEE7FEE743
:10029000FEE7FEE7FEE7FEE7FEE7FEE7FEE7FEE736
:1002A000A14A0008AD0100082DE9F05F05460020D5
:1002B00092469B4688460646814640241BE02846D7
:1002C00041464746224600F084FA53465A46C01A31
:1002D000914110D311461846224600F06BFA2D1AB0
:1002E00067EB01084F4622460120002100F062FA28
:1002F00017EB00094E41201EA4F10104DFDC484643
:1003000031462A464346BDE8F09F40EA01039B0779
:1003100003D009E008C9121F08C0042AFAD203E07A
:1003200011F8013B00F8013B521EF9D27047D2B2DE
:1003300001E000F8012B491EFBD270470022F6E7CE
:1003400010B513460A4604461946FFF7F0FF20464B
:1003500010BD10B5044604E00B7800F8013B03B172
:10036000491C521EF8D2204610BD421C10F8011B39
:100370000029FBD1801A704710B5002200E0521C02
:10038000835C8C5CA34201D1002BF8D1D8B2E1B2DE
:10039000401A10BD034611F8012B00F8012B002A6A
:1003A000F9D11846704730B505460020034600E0F5
:1003B0005B1C934205D2EC5CC85C201A01D1002C76
:1003C000F6D130BD70B5064605F074F804680546F0
:1003D0000A220021304600F03DFC2C6070BD2DE962
:1003E000FE4F804681EA0300C00F0C46009021F0CA
:1003F000004123F00045B8EB0200A94105D2404678
:10040000214690461C460B46024623F0004010430E
:1004100047D0270DC7F30A00C3F30A510290401AD0
:10042000019040286BDAC3F3130040F4801B00985E
:10043000924620B10023D2EB030A63EB0B0B019829
:100440005946C0F14002504600F0B4F906460D4648
:1004500050465946019A00F0CCF910EB0800614172
:10046000002487EA115284EAE7731A4340D0009AC5
:1004700062B3019A012A4FEA075215DC001B61EBB7
:1004800002014FF0004202EA0752CDE90042001C8F
:1004900041F5801132462B4600F066FC03B0BDE802
:1004A000F08F40462146F9E7001B61EB0201001C7A
:1004B00041F5801300185B412018A2F5001747EBA7
:1004C000030140EAD570B6196D4111E06D084FEA9D
:1004D000360645EAC0754FEA0752001B61EB020180
:1004E000001C41F5801149084FEA300000195141C4
:1004F00032462B4603B0BDE8F04F00F026BC009812
:10050000012240000023D0EB020263EBE07300986D
:1005100021464FEAE074B8EB000061EB0401E9E723
:1005200083F000435BE781F0004158E72DE9FE4F7F
:1005300081EA030404F0004421F0004100944FF0EC
:10054000000B23F0004350EA01045ED052EA03049A
:100550005BD0C3F30A54C1F30A552C44A4F2F3341C
:100560000194A0FB0254C1F3130141F48011C3F3C1
:10057000130343F4801301FB024400FB034E840A7F
:10058000970A44EA815447EA8357A4FB0768029517
:100590008D0A05FB07854FEA932C04FB0C542705B5
:1005A000029D4FEA065847EA1637B5EB08056EEB91
:1005B000070C870E920E47EA811742EA8312A7FBC7
:1005C0000201B6EB0B0164EB00042B0D43EA0C3384
:1005D0005E1844EB1C50DA465146E7FB0201C5F3B6
:1005E00013044FEA0B3343EA14534FEA0432019CDD
:1005F00043EA0603A4F10C040294009CCDE900B484
:1006000000F0B2FB03B0BDE8F08F00200146F9E72F
:100610002DE9F04D81EA030404F0004B21F0004580
:1006200014464FF0000A23F0004150EA050220D0A2
:1006300054EA01021DD0C5F30A570246C5F313035D
:10064000C1F31300C1F30A5640F4801543F480133C
:10065000A7EB0608101BD64608F2FD3873EB050021
:1006600002D308F1010801E092185B41B8F1000FD4
:1006700003DA00200146BDE8F08D00204FF4801120
:10068000064684460EE0171B73EB050705D3121BC5
:1006900063EB050306434CEA010C49084FEA3000BE
:1006A00092185B4150EA0107EDD152EA030012D0E3
:1006B00082EA040083EA0501084305D0101BAB4120
:1006C00006D20122002306E000224FF0004302E0A0
:1006D0006FF0010253101AEB06004CEB085110EBBF
:1006E0000A0041EB0B01BDE8F04D00F02EBB0EB54A
:1006F000C10F80EAE0700844CA07002140F233438A
:100700008DE80E000A460B4600F02EFB03B000BD3C
:100710000EB540F2334102910021CDE900110A46A5
:100720000B4600F021FB03B000BD00F0004230F0AA
:1007300000400AD0C10D01F56071C0F3160042EA15
:100740000151C2084007114370470020014670471D
:1007500001F0004330B421F0004150EA010206D01C
:100760000A0DA2F56072C1F31301002A02DC30BC4D
:1007700000207047440F44EAC104C100E01830BCB7
:1007800000EBC25000F09EBA30B50B460146002087
:100790002022012409E021FA02F59D4205D303FA43
:1007A00002F5491B04FA02F52844151EA2F10102C4
:1007B000F1DC30BD202A04DB203A00FA02F10020EF
:1007C00070479140C2F1200320FA03F3194390408F
:1007D0007047202A04DB203A21FA02F000217047FA
:1007E00021FA02F3D040C2F1200291400843194699
:1007F0007047202A06DBCB17203A41FA02F043EA81
:10080000E07306E041FA02F3D040C2F120029140C9
:1008100008431946704700002DE9FF4F087883B060
:100820009946FF2805D0491C2D2804D0002400201B
:1008300008E000200BE00124F9E700EB800003EB67
:100840004000491C0B78FF2BF7D104B14042002334
:100850000293147819461D462D2C01D02B2C04D15F
:10086000521C2D2C13D000240294AA461478FF2C7D
:100870000FD00A25A3FB057801FB05814FF0000C82
:1008800003FB0C11521CE3194AEB0101EEE70124B2
:10089000EAE7814453EA010002D019F5C87F06DA7D
:1008A00003980021C0E9001107B0BDE8F08F0025D2
:1008B000AE4E2F46DFF8B882184600F0CFFBCDE9E8
:1008C0000001B9F1000002DAC9F1000400E00446B9
:1008D0000023A74A1AEB030B42EB045A12E0E0078D
:1008E00007D02A46334638464146FFF71FFE0746E3
:1008F00088462A46334610461946FFF717FE054636
:100900000E466410002CEAD1DDE90001B9F1000FB8
:100910005A46534606DAFFF77BFE3A464346FFF750
:1009200077FE05E0FFF702FE3A464346FFF7FEFD7D
:10093000029A0AB181F00041039AC2E90001B3E7CB
:100940002DE9FF4F1F468DB0D7E901464FF0FF3824
:100950002E2045464FF000090B90B9696D1C0E988A
:100960008847396A824688470028F6D1BAF1FF3FA6
:100970000AD024F4D064002E11DDBAF12B0F08D078
:10098000BAF12D0F0BD102E0404611B08DE744F4CF
:100990008064B9696D1C0E9888478246761E694648
:1009A000600501D52D2000E02B208DF8000001F11D
:1009B000010B0DF1200809E0B9696D1C0E988847FC
:1009C00082460F9844F40074761E0560002E02DD06
:1009D000BAF1300FF0D00B998A453ED144F0800433
:1009E00006E00F99681CA9F1010944F4007408603D
:1009F000B9696D1C761E0E98884782463028F0D063
:100A00002BE00B998A4505D1200603D444F08004DD
:100A1000761E18E0504606F0DDFB08B30DF1130119
:100A2000761E44F400748B4508D2AAF130000BF80E
:100A3000010B200607D5A9F1010003E0200602D42E
:100A400009F101008146A00502D50F99681C0860D4
:100A5000B9696D1C0E9888478246002ED1DC53E0A0
:100A6000002E51DDBAF1650F02D0BAF1450F4BD11E
:100A7000A00549D5B9696D1C24F44074761E0E9802
:100A800088478246002E0CDD2B2804D0BAF12D0FAA
:100A900007D144F48074B9696D1C0E98884782466A
:100AA000761EE00501D52D2100E02B2108F8011B61
:100AB000CDF82C8021E00DF12901761E44F400745C
:100AC00088450CD2AAF1300010F0FF0088F8000031
:100AD00002D10B99884509D908F1010806E0E00523
:100AE00001D5244801E042F20F708146B9696D1CBE
:100AF0000E98884782460F980560002E04DD504608
:100B000006F068FB0028D6D1F9690E988847FF20C7
:100B10008BF8000088F800000020069007904B46F4
:100B20006A4608A906A8FFF777FEA00502D46FF071
:100B300001002AE714F0240F0AD0E00714D1DDE900
:100B400006123868031D3B600068C0E900120BE024
:100B5000DDE90601FFF7FCFD0146E00704D1386836
:100B6000021D3A600068016028460EE7000014404C
:100B70000000F03FF1D8FFFF426842B1016811F870
:100B8000013B23B1521EC0E90012184670470121F3
:100B9000C160881E704742685AB1C368016843B992
:100BA00083688B4205D0491E521CC0E90012002008
:100BB00070474FF0FF3070470FB4002300B589B085
:100BC0000CA900910B996FF00042CB601E4B06936D
:100BD0001E4B07930423CDE901321D4A08920246B9
:100BE0006B460020FFF7ACFE09B05DF814FB70B552
:100BF00086B006464FF0FF300091CDE9010100209C
:100C000015460C4604903246694604A8FFF7D4FF07
:100C100002460498211825B108B1084600E0204694
:100C20002860049800280DD0002A02DD0098884230
:100C300008D0081B0094CDE901043246694604A897
:100C4000FFF7BAFF06B070BD790B0008970B0008DC
:100C5000910F00082DE9F04791460F468046044663
:100C6000002614F8015B2DB100F08EF90068405D9C
:100C7000C007F6D12B2D02D02D2D18D0641E4A4668
:100C80003946204600F09BF927B13968A14201D1CD
:100C9000C7F8008071054FF002040BD540420028D0
:100CA00003DD04F007FC0460A007BDE8F08746F40C
:100CB0008066E4E70028F8DA04F0FCFB04606FF0DB
:100CC0000040F2E70029A8BF7047401C490008BF58
:100CD00020F00100704710B4B0FA80FC00FA0CF06C
:100CE00050EA010404BF10BC704749B1CCF12004A4
:100CF00021FA04F411FA0CF118BF01212143084331
:100D0000A3EB0C01CB1D4FEA00614FEA102042BF5C
:100D1000002010BC704700EBC35010440029A4BF52
:100D200010BC7047401C490008BF20F0010010BCF7
:100D30007047420005D0C0F3C7525242914201DCD5
:100D40000020704700EBC150704710B5141E73F1BE
:100D5000000408DA401C41F1000192185B411A437B
:100D600001D120F0010010BD2DE9F04D92469B46C7
:100D700011B1B1FA81F202E0B0FA80F2203290466D
:100D8000FFF718FD04460F4640EA0A0041EA0B014E
:100D900053465A46084313D0114653EA010019D06E
:100DA000C8F140025046FFF714FD05460E46504676
:100DB00059464246FFF7FEFC084305D0012004E0F7
:100DC00020463946BDE8F08D0020054346EAE0762E
:100DD0002C4337430A986305E40AA0EB080000227D
:100DE000FD0A44EA47540A3002D500200146E9E7EB
:100DF000010510196941DDE9084500196941BDE89F
:100E0000F04DA2E770B521F0004303430CD0C1F3CD
:100E10000A550024D5EB040564EB0403D617AD1A7C
:100E2000B34102DB0020014670BD201841EB0251A6
:100E300070BD2DE9F04D00231A461B1A8A4103DBD1
:100E400000200146BDE8F08DC1F30A52C1F3130141
:100E500041F480154FF0000BD10702D100186D410D
:100E6000521E0027044640F2FF11384601EB620A89
:100E70003E468046024600204FF48011FFF7A9FC51
:100E8000C2197141BB1846EB0100B4EB030C75EBC2
:100E9000000C04D3E41A65EB000517460E4624192E
:100EA00008F101006D4180463428E3DDF91946EB75
:100EB0000600091BA84103D24FF0FF32134601E0A0
:100EC000002213461BEB070046EB0A51BDE8F04D2C
:100ED000FFF73BBFC1F30A52C1F3130140F2FF33E6
:100EE00041F480119A4202DA00200146704740F234
:100EF00033439A42A2F2334202DC5242FFF769BC0A
:100F0000FFF758BC30B5041E71F1000404DB4FF04C
:100F10000044404264EB0101141E73F1000405DB40
:100F20001C464FF00043524263EB04038B4208BF60
:100F3000824230BD30B5041E71F1000404DB4FF075
:100F40000044404264EB0101141E73F1000405DB10
:100F50001C464FF00043524263EB0403994208BF22
:100F6000904230BD064C074D06E0E06840F00103BA
:100F700094E8070098471034AC42F6D3FFF71AF90B
:100F80002810010848100108004870479C08010813
:100F900010B50446FFF7F8FF0068005D00F001009F
:100FA00010BD3A2800D2303820F02002412A01D367
:100FB000A2F13700884201D34FF0FF3070472DE98E
:100FC000F05F82460078002715468B460AF101043F
:100FD000B946302801D09DB113E014F8010B012768
:100FE000782803D0582801D045B10AE00DB1102D62
:100FF00007D10027102514F8010B02E0082500E0B6
:101000000A250026B0460EE005FB080005FB06F1A8
:10101000012701EB10461FFA80F8B6F5803F00D398
:10102000B94614F8010B2946FFF7BBFF0028EBDA9D
:10103000BBF1000F05D00FB1641E00E05446CBF8A1
:101040000040B9F1000F06D004F034FA022101602B
:10105000C81EBDE8F09F48EA0640FAE70EB540F228
:10106000334202920022CDE900221346FFF77CFEB4
:1010700003B000BD70B58C1810F8015B15F00703C4
:1010800001D110F8013B2A1106D110F8012B03E021
:1010900010F8016B01F8016B5B1EF9D12B0705D429
:1010A0000023521E0DD401F8013BFAE710F8013B72
:1010B000CB1A921C03E013F8015B01F8015B521E8E
:1010C000F9D5A142D8D3002070BDFEE7014800F059
:1010D00082BB000090080020014800F07CBB0000AB
:1010E00090080020014800F076BB0000B8080020FE
:1010F000014800F070BB0000B8080020F0B587B0D0
:1011000000240C9E0746254649B10420CDE9012064
:10111000CDE903538DF814504FF6FE7506E00295A5
:101120000092F5E7641CA4B2AC420CD8384600F03B
:101130003CFB0028F6D006AB32466946384600F044
:10114000CBF9002800D0012007B0F0BD014800F025
:1011500027BE0000D80B0020014800F021BE00008F
:10116000380C0020014800F01BBE0000780B002066
:1011700001681823CAB2103AB2FBF3F2054B6FF3C1
:101180000901032A9B5CC36500D9091D81650846D6
:1011900070470000E0FC000810B5014600208B6994
:1011A0008A6A4FF0C07453B1B3F5005F15D072B1C5
:1011B000012A0CD0022A0AD0032A09D104E01AB16C
:1011C000012A06D0022A03D1C96AC90100D501202B
:1011D00010BDC96AA142FAD010BD002AF7D0012A79
:1011E000F2D0022AF3D0032AF3D010BD30B5046840
:1011F000256825F480252560046863608368402B9A
:10120000036803D099600068C26030BD9A600068CE
:10121000C16030BD704772B6FEE70000002229B100
:1012200001291DD002291ED04FF440720B2800D98D
:10123000001D0E490B6823F440730B600B681343C9
:101240000B600A6822F0F8020A600A68022303EBC6
:10125000C00002430A60086840F4803008607047AC
:101260004FF48072E2E74FF40072DFE7103C024077
:101270001348016889050FD5016821F400710160E8
:10128000016841F400610160016821F400610160BE
:10129000016841F400710160016849050FD50168DA
:1012A00021F480610160016841F4805101600168AE
:1012B00021F480510160016841F480610160704750
:1012C000003C02400E4A136823F440731360032964
:1012D0000DD0012911680FD041F40041116011684F
:1012E0004FF4803343EA00200143116070471168D6
:1012F00048F204031943F1E741F00401EEE700006E
:10130000103C0240064A136823F4407313601368CC
:101310001360136843F0010313600170704700000D
:10132000103C0240094910B50C6824F440740C606C
:101330000C6844F440740C600C6844F001040C60C8
:101340000260BFF36F8F436010BD0000103C02408D
:10135000074A136823F440731360136843F48073DF
:101360001360136843F001031360018070470000AD
:10137000103C0240074A136823F44073136013685B
:1013800043F400731360136843F0010313600160BA
:1013900070470000103C02401C490868C2061C4807
:1013A00005D5C26942F01002C26110220A600A68C3
:1013B000920605D5C26942F00802C26120220A6085
:1013C0000A68520605D5C26942F00402C261402291
:1013D0000A600A68120605D5C26942F00202C261BB
:1013E00080220A600A68D20506D5C26942F001026D
:1013F000C2614FF480720A600A68920705D5C2691B
:1014000042F02002C2610220086070470C3C02409A
:10141000F80C002070B5114904460020C86101F0A5
:101420001FF806460E4D09E0601C07D024B101F0FC
:1014300017F8801BA04201D9032070BD2868C003A3
:10144000F2D42868C00701D001202860286810F471
:10145000F970F2D0FFF7A0FF012070BDF80C00205A
:101460000C3C0240044B08B1012200E000220121A3
:10147000184600F0EFBF00000014024010B5FFF75F
:1014800047F99FED081B53EC112BFFF74FF89FED29
:10149000071B53EC112BFFF749F8FFF759F900EE42
:1014A000100A10BD0000000000807640000000001F
:1014B0000000103F90F82020012A07D0022A05D012
:1014C000416A41F48021416201207047006842690D
:1014D0000A43426100207047F0B590F8205004683C
:1014E000A468012D05D0022D03D0416A41F480216A
:1014F0005DE014F0406F01D1E50055D5C4F30164FF
:10150000022C03D9416A41F4000150E00125A540B5
:101510001D608D684FF4C0739DB1CE6835434E6831
:1015200045EAC605066803EB0417F5514FF4C2758A
:10153000076805EB04150E697E51097D012905D068
:1015400009E00E88CD6845EA4655EBE701684E593B
:1015500046F480764E511179D579567941EA056184
:1015600095792D0445EA062529434FF4C67605688A
:1015700006EB0416A9511178D57841EA05619578F2
:1015800052782D0445EA022211434FF4C4750268D3
:1015900005EB04155151006803EB0411425842F069
:1015A000010242500020F0BD416A41F40011416245
:1015B0000120F0BD10B590F82020012A07D0022AA2
:1015C00005D0416A41F480214162012010BD3B48B1
:1015D000D0F8002242F00102C0F80022D0F8002228
:1015E00022F47C52C0F80022D0F800224B6A42EA72
:1015F0000322C0F800220A7D02F01F0301229A4054
:10160000D0F81C329343C0F81C32CB69B3B9D0F880
:101610000C329343C0F80C328C894B6864F31F433F
:101620004C6900EBC404C4F840320C890B6864F3C5
:101630001F434C6900EBC404C4F84432CB69012B4E
:1016400016D1D0F80C321343C0F80C320C884B681A
:1016500064F31F434C6900EBC404C4F840320C89A6
:10166000CB6864F31F434C6900EBC404C4F84432F4
:101670008B69002BD0F804320ED01343C0F804322B
:101680000B69002BD0F8143208D01343C0F8143281
:10169000096A012904D008E09343EFE79343F5E793
:1016A000D0F81C121143C0F81C12D0F8001221F01F
:1016B0000101C0F80012002010BD000000640040CD
:1016C000704730B590F82040012C05D0022C03D093
:1016D000416A41F480215DE00468002955D0246905
:1016E000A40754D04FF4D874056804EB01142D59A5
:1016F00015F00405956005682D594ED0ED0855602C
:1017000005682C5904F00204D4604FF4DA740568BB
:1017100004EB01142D5905F00F05156105682D59CD
:10172000C5F30725956105682C59240C54614FF4C5
:10173000DC72046802EB0112A4581C700468A458FF
:10174000240A5C700468A458240C9C700468A25895
:10175000120EDA704FF4DE72046802EB0112A45824
:101760001C710468A458240A5C710468A458240CF1
:101770009C710468A258120EDA71006881B1016987
:1017800041F020010161002030BDE468A8E7416A12
:1017900041F400114162012030BD6D0D1560AFE7CD
:1017A000C16841F02001C160EDE70246002092F8D7
:1017B0002010012901D002290CD111688A68520138
:1017C00000D501208A68120100D5401C8968C90033
:1017D00000D5401C70472DE9F05F054600680024E5
:1017E0004669D0F804908768D0F80CB0D0F810A003
:1017F000D0F81880F10748D0F90714D00121816092
:10180000B80703D5284600F06AFA0CE0780702D53D
:101810004FF4006407E0380702D54FF4805402E02B
:10182000284600F05BFAF80516D529684FF4807059
:101830008860B80503D5284600F053FA0CE0780517
:1018400002D544F4005407E0380502D544F480443E
:1018500002E0284600F044FAF80316D529684FF450
:1018600080308860B80303D5284600F03CFA0CE0CD
:10187000780302D544F4004407E0380302D544F469
:10188000803402E0284600F02DFA300707D55FEAE1
:10189000CB6004D52968102044F40074C860700738
:1018A0004FF0080707D55FEA0B7004D52868C760BA
:1018B000284600F0A9F9B00706D52868C068800757
:1018C00002D0284600F0A2F9700607D55FEACA6088
:1018D00004D52968102044F480640861B00607D557
:1018E0005FEA0A7004D528680761284600F0C6F947
:1018F000F00606D528680069800702D0284600F067
:10190000BEF9B00308D55FEAC96005D52968102083
:101910004860284600F0B4F9F00307D55FEA097083
:1019200004D528684760284600F0DEF9300446D523
:101930005FEA497040D5F00504D55FEAC87001D070
:1019400044F00104B00504D55FEA887001D544F085
:101950000204700504D55FEA487001D544F0040420
:10196000300529D518F0700F26D008F070004028F7
:1019700015D006DC102809D020280AD0302816D12E
:101980000AE050280ED0602811D10EE044F008047F
:101990000DE044F010040AE044F0200407E044F0B5
:1019A000400404E044F0800401E044F480742868BA
:1019B000816921F070018161296804204860002C50
:1019C00005D0686A204368622846FFF779FEBDE8C3
:1019D000F09F70B5040003D094F8200010B104E02B
:1019E000012070BD204600F081F82068016841F0B8
:1019F0000101016000F034FD0546052604E000F019
:101A00002FFD401B0A2811D820684068C007F6D077
:101A10002068016821F00201016000F021FD054607
:101A20000BE000F01DFD401B0A2806D9606A40F457
:101A30000030606284F82060D2E720684068800748
:101A4000EFD4207E0128206801683DD021F080017C
:101A50000160607E01282068016838D021F04001D3
:101A60000160A07E01282068016833D021F02001A8
:101A70000160E07E0128206801682ED041F010014D
:101A80000160207F01282068016829D021F0080129
:101A90000160607F01282068016824D021F00401E2
:101AA0000160D4E902010843D4E904121143084358
:101AB0006168491E08432168C861002060620120F6
:101AC00084F82000002070BD41F08001C0E741F0A3
:101AD0004001C5E741F02001CAE721F01001CFE73E
:101AE00041F00801D4E741F00401D9E7F0B587B02F
:101AF000044614216846FEF721FC3E4B3E48DFF8C1
:101B0000F0E01968D4F800C03B4A032502260927F3
:101B100010300024491CF4452AD11960012907D14D
:101B2000016841F000710160006800F000700590EC
:101B3000106840F0080010601068CDE9005600F011
:101B40000800CDE9047069462C48CDE9024500F053
:101B500067FB00220521132000F020FD132000F078
:101B60000FFD00220521142000F018FD14203BE099
:101B7000DFF88CE0F44539D1D0F800C04CF0806C2F
:101B8000C0F800C0D0F800C001290CF0806CCDF87E
:101B900014C0196007D1016841F00071016000684C
:101BA00000F000700590106840F0020010601068AE
:101BB00002AB00F0020005904FF44050CDE9000662
:101BC00083E8B00069460F4800F02AFB0022052197
:101BD0003F2000F0E3FC3F2000F0D2FC0022052172
:101BE000402000F0DBFC402000F0CAFC07B0F0BD54
:101BF000006400408C00002030380240000C02409D
:101C000000680040000402407047000010B58AB030
:101C100004466B4602AA0021FFF753FD14492068D1
:101C200088420298A0F2012013D107280BD8C0B235
:101C300000EB800101EBC0010E4812E0491CC162BB
:101C4000694609F082FB0AB010BD694609F057FBEE
:101C5000F9E70728F7D8C0B200EB800101EBC0011B
:101C6000054800EB8100C16A3229EED8E6E70000A2
:101C700000640040444E0020E44F0020704770474D
:101C80007047000070B5044690F82000012804D089
:101C9000606A40F40020606218E0022084F82000AE
:101CA0002068016821F00101016000F0D9FB0546C0
:101CB0000EE000BF00F0D4FB401B0A2808D9606A80
:101CC00040F400306062052084F82000012070BDDF
:101CD00020684068C007EDD1606270BD70477047F2
:101CE000704770477047704770472DE9F0410446D0
:101CF000876D00F0B5FB064694F8350000250228F4
:101D000006D08020606584F834500120BDE8F08161
:101D10002068016821F0160101602068416921F006
:101D200080014161206C08B9A06C20B12068016875
:101D300021F0080101602068016821F001010160C3
:101D40000CE000F08DFB801B052807D92020606582
:101D5000032084F8350084F83450D7E72068006801
:101D6000C007EED194F85C103F208840B860012095
:101D700084F8350084F834500020C7E790F8351017
:101D8000022903D08021416501207047052180F898
:101D900035100068016821F00101016000207047E2
:101DA0002DE9F84304464FF00009CDF80090634850
:101DB0004FF41651A56D0068B0FBF1F72E6894F84A
:101DC0005C10082000FA01F131420FD021680A6846
:101DD00052070BD50A6822F004020A6094F85C10DE
:101DE0008840A860606D40F00100606594F85C1068
:101DF0004FF0010808FA01F0304208D02168496923
:101E0000090604D5A860606D40F00200606594F892
:101E10005C1004208840304208D021680968890796
:101E200004D5A860606D40F00400606594F85C1013
:101E300010208840304218D021680968090714D55D
:101E4000A86020680168490304D50068000308D52C
:101E5000A16C07E00168C90503D4016821F00801FD
:101E60000160216C09B12046884794F85C1020205D
:101E70008840304231D021680968C9062DD5A86054
:101E800094F8350005282068016806D0490347D535
:101E9000006800031DD4616C1CE021F01601016094
:101EA0002068416921F080014161206C08B9A06C73
:101EB00020B12068016821F00801016094F85C10ED
:101EC0003F208840A86084F8358084F83490216DE4
:101ED0001FE0E16B09B120468847606D00282BD0D8
:101EE000606DC00714D0052084F8350020680168B3
:101EF00021F0010101600098401C0090B84203D815
:101F000020680068C007F6D184F8358084F83490E2
:101F1000E16C002910D001B02046BDE8F04308472D
:101F20000168C905D5D4016821F01001016084F869
:101F3000358084F83490CCE7BDE8F883A000002019
:101F40002DE9F041044600F08BFA06465CB1022010
:101F500084F83500002584F834502068016821F0A9
:101F6000010101600DE00120BDE8F08100F078FA88
:101F7000801B052805D920206065032084F83500E2
:101F8000F2E720680068C007F0D122681168204895
:101F90000140D4E901031843D4E90336334318431D
:101FA00063691843A3691843E3691843236A184314
:101FB0000843616A042903D1D4E90B131943084388
:101FC000106020684069666A20F0070130460E43C1
:101FD000012704280CD1A06A0643E06A40B12046DC
:101FE000FFF7DAF820B14020606584F83570BAE771
:101FF000206846612046FFF7BBF894F85C203F213B
:1020000091408160656584F835700020ACE7000080
:102010003F8010F070B5044690F834000025012888
:102020000CD0012084F8340094F835600020012E93
:1020300006D084F834000225284670BD022070BD09
:10204000022684F8356060652046FFF7CFF82068E7
:10205000016841F001010160EEE72DE9F04104461D
:10206000866D90F83400002501280DD0012084F8F9
:10207000340094F835700020012F07D084F8340024
:1020800002252846BDE8F0810220FBE7022784F8FC
:10209000357060652046FFF7A9F894F85C103F2082
:1020A0008840B0602068016841F016010160206C32
:1020B00020B12068016841F00801016020680168D2
:1020C00041F001010160DCE72DE9F04704462348B7
:1020D0000F46017E01290AD00121804601764CF28B
:1020E00050394846FFF796F9020003D030E002204D
:1020F000BDE8F0874FF0FF3038602068184D0128A8
:1021000001D0A6681DE0207C6168FFF7DBF8484637
:10211000FFF780F90246286848F2040188432860E6
:1021200014E0217C3046FFF779F84846FFF772F952
:102130000200286820F0FA00286001D03E6005E027
:10214000761CD4E902100844B042EAD8FFF790F8B0
:10215000002188F818101046CAE70000F80C00208B
:10216000103C02400348016841F00041016000203A
:1021700070470000103C02402DE9F0471B4E054619
:102180001446307E1F468946012808D0012030764B
:102190004CF250384046FFF73DF918B114E00220E8
:1021A000BDE8F0879DB1012D16D0022D19D0224631
:1021B0003B464846FFF7B6F84046FFF72BF90C4977
:1021C0000A6822F001020A6000213176E8E7E1B2F4
:1021D0004846FFF797F8EFE7A1B24846FFF7B8F88F
:1021E000EAE721464846FFF7C5F8E5E7F80C002086
:1021F000103C0240074900200A68002A09DA054A13
:10220000054B0C3A1360054B13600968002900DA8E
:1022100001207047103C024023016745AB89EFCD98
:102220002DE9F84FDFF8F8A10022012403254FF033
:102230000F090AF1040BAAF1040E00BF0B6804FA9F
:1022400002F63340B34270D10F7907F00307012F34
:1022500001D0022F16D187684FEA420805FA08FC20
:1022600027EA0C07D1F80CC00CFA08FC4CEA070C62
:10227000C0F808C04768B7430E79C6F30016964009
:102280003E4346600E79F643B6070AD0C7684FEA68
:10229000420C05FA0CF6B7438E6806FA0CF63E437C
:1022A000C6600E7906F00306022E10D1D60800EBA8
:1022B0008608D8F8206057074FEAD76C09FA0CF760
:1022C000BE430F6907FA0CF73743C8F82070066859
:1022D0004FEA420C05FA0CF7BE430F7907F00307EB
:1022E00007FA0CF7374307604E6816F4403F1CD0DE
:1022F0004C4E376847F480473760366822F0030752
:1023000006F480460096484E07EB060CDCF8086899
:1023100097073F0F09FA07F826EA0806DFF80C814D
:10232000404503D14FF0000841E072E0DFF8008142
:10233000404502D14FF0010839E0DFF8F880404510
:1023400002D14FF0020832E0DFF8EC80404502D1C4
:102350004FF003082BE0DFF8E480404502D14FF056
:10236000040824E0DFF8D880404502D14FF005088A
:102370001DE0DFF8D080404502D14FF0060816E09E
:10238000DFF8C480404502D14FF007080FE0DFF8C6
:10239000BC80404502D14FF0080808E0DFF8B0806B
:1023A000404502D14FF0090801E04FF00A0808FA51
:1023B00007F848EA0608CCF80888DAF800605746BB
:1023C000D1F804C09E435FEACC2C00D51E433E608A
:1023D000DBF800605F46D1F804C09E435FEA8C2CB6
:1023E00000D51E433E60DEF800607746D1F804C099
:1023F0009E435FEA8C3C00D51E433E60084F083F79
:102400003E68D1F804C09E435FEACC3C00D51E4331
:102410003E60521C102AFFF411AFBDE8F88F000097
:10242000083C0140443802400030014000000240B6
:102430000004024000080240000C0240001002406C
:102440000014024000180240001C0240002002401C
:10245000002402400AB1816170470904FBE70000D3
:10246000014880687047000094000020024881689D
:102470000278114481607047940000200B4810B529
:10248000016841F400710160016841F480610160FC
:10249000016841F480710160032000F09FF805207D
:1024A00000F006F800F050F8002010BD003C02409B
:1024B00030B505461F4887B00024016841F480719B
:1024C0000160006806A900F48070009001A800F087
:1024D00069F90498A8B100F085F940001649174A37
:1024E000B0FBF1F11648491E026040F2E732C0E944
:1024F0000324C0E90114846100F028FE040003D025
:1025000015E000F06FF9E9E70D4800F079FE0400EE
:102510000DD12D2000F034F8102D07D200222946CD
:102520002D2000F03BF80748056000E0012407B0CB
:10253000204630BD4038024040420F00002000409D
:10254000B00C0020980000200C4882B0016841F4D3
:1025500080410160006800F4804000900748001F3F
:10256000016841F0805101600068002200F0805055
:1025700000900F21901E02B000F010B844380240C5
:10258000002809DB00F01F02012191404009800072
:1025900000F1E020C0F8001170470000F0B40E4BCD
:1025A0001B680C46C3F30223C3F10705042D00D9B1
:1025B0000425191D072901D2002300E0DB1E012696
:1025C00006FA05F1491E214099409E40761E1640AC
:1025D0003143F0BC02F05EBF0CED00E0064900F0B4
:1025E000070208684FF6FF03184040EA0220034A3A
:1025F00010430860704700000CED00E00000FA0591
:102600002DE9F8431748016841F0805101600068E6
:10261000154F00F08050012600903E64FFF720FF28
:1026200005464FF47A78114C05E000BFFFF718FF1C
:10263000401B40450DD86068C003F7D57E64FFF7A6
:102640000FFF0546464607E0FFF70AFF401BB04272
:1026500002D90320BDE8F88360688003F4D5002028
:10266000F8E700004038024000000E4200700040D1
:102670002DE9F0470E46050065D0DFF81481D8F843
:102680000000F7B200F00F00B04207D288F80070E7
:10269000D8F8000000F00F00B04254D128683D4C3B
:1026A000810712D5400703D5206840F4E050206030
:1026B0002878000703D5206840F460402060206837
:1026C000A96820F0F000084320602878C0072DD0CA
:1026D000304968680839012812D0022813D003282D
:1026E00011D00968890700292DDA216821F003013A
:1026F00001432160FFF7B4FE814641F2883A0EE0C3
:1027000009688903EFE709688901ECE7FFF7A8FE8C
:10271000A0EB0901514502D90320BDE8F0872068EC
:10272000696800F00C00B0EB810FEFD1D8F8001011
:10273000404601F00F01B14207D90770006800F070
:102740000F00B04201D00120E7E72878400705D507
:102750002068E96820F4E0500843206028780007EA
:1027600006D52068296920F4604040EAC100206055
:1027700000F058F82168084AC1F30311515CC840C1
:102780000649086006480068FFF792FE0020C4E78B
:10279000003C024008380240E8FC0008A00000208D
:1027A000980000200F2202600C4A136803F0030314
:1027B0004360136803F0F0038360136803F4E0538D
:1027C000C36012684FF4E05303EAD2020261044886
:1027D000006800F00F0008607047000008380240F1
:1027E000003C02400448054900680968044AC1F3F6
:1027F0008221515CC8407047A00000200838024088
:10280000F8FC00080448054900680968044AC1F357
:102810004231515CC8407047A00000200838024097
:10282000F8FC0008154810B5006810F00C021448B8
:1028300013D01449042A0FD0082A0ED10F4C241F9C
:102840002268236802F03F025B0207D52068C0F3CC
:102850008810A0FB010106E0084610BD2168C1F305
:102860008811A1FB00010023FDF71EFD2168C1F3C3
:102870000141491C4900B0FBF1F010BD083802408D
:102880000024F40040787D012DE9F84F04006ED05B
:102890002078DFF84C93C007A9F104054AD009F16C
:1028A00004000168C1F38101012908D00068C0F368
:1028B000810002280AD1D9F80000400206D5286814
:1028C000800337D560680028E1D033E06068B0F558
:1028D000803F10D0B0F5A02F286810D020F48030B1
:1028E0002860286820F4802028606068A8B1FFF77D
:1028F000B7FD06460DE0286840F48030F4E740F468
:1029000080202860F7E700BFFFF7AAFD801B64283E
:1029100073D828688003F7D50CE0FFF7A1FD0646C1
:1029200005E000BFFFF79CFD801B6428F0D82868F5
:102930008003F7D42078DFF8AC8280074FF0000ADC
:102940003ED5A748001D016811F00C0F08D00068A3
:10295000C0F3810002280BD1D9F80000400207D44F
:102960002868800716D5E068012800D112E033E11D
:10297000E068B8B10120C8F80000FFF771FD064615
:1029800005E000BFFFF76CFD801B0228C0D8286857
:102990008007F7D52868216920F0F80040EAC100D7
:1029A00028600DE0C8F800A0FFF75AFD064604E0D5
:1029B000FFF756FD801B02281FD828688007F7D430
:1029C0002078000722D5864F87486169703771B13A
:1029D00001210160FFF744FD064604E0FFF740FDDA
:1029E000801B022809D838688007F7D50EE0C0F8A8
:1029F00000A0FFF735FD064605E082E0FFF730FD59
:102A0000801B02287DD838688007F7D420784007DB
:102A100068D5DFF8CCB100270BF13C0BDBF80000E8
:102A2000C0000BD4DBF8001041F08051CBF800104F
:102A3000DBF80000012700F0805000906B4E3068FA
:102A4000C00510D4306840F480703060FFF708FD96
:102A5000009005E0FFF704FD0099401A022850D8C5
:102A60003068C005F6D55E4EA0686C3601280FD0E0
:102A70000528306810D020F001003060306820F068
:102A800004003060A068B8B1FFF7EAFC00900FE0E6
:102A9000306840F00100F4E740F004003060F7E7F0
:102AA000FFF7DEFC0099411A41F28830814266D876
:102AB00030688007F4D50EE0FFF7D2FC009007E005
:102AC000FFF7CEFC0099411A41F28830814256D876
:102AD00030688007F4D42FB1DBF8001021F080516A
:102AE000CBF80010A069C8B33D49091D0968C1F3BE
:102AF000810102294AD00228504607D0C8F8600058
:102B000000E03CE0FFF7ACFC04463BE04746C8F879
:102B10006000FFF7A5FC064605E000BFFFF7A0FC3C
:102B2000801B02282BD828688001F7D4D4E907013C
:102B30000843A16A2E4A490802EB0141626A41EA50
:102B40008211084394F82C1040EA0161C9F8001082
:102B500001203866FFF784FC044606E03EE000BF33
:102B6000FFF77EFC001B022809D828688001F7D5F2
:102B700034E000BFFFF774FC001B022802D90320D9
:102B8000BDE8F88F28688001F4D427E00128F7D049
:102B9000D9F80000E26900F4800191421CD1226A58
:102BA00000F03F01914217D147F6C071626A0140BF
:102BB000B1EB821F10D1A26A4FF0FF3300F4403115
:102BC00003EB5202B1EB024F06D194F82C1000F047
:102BD0007060B0EB016F01D00120D1E70020CFE79A
:102BE0000438024000004742800E47420070004017
:102BF0000000FFFF70B5040009D0606A002540B1F5
:102C000025616561A56294F8510040B10CE0012096
:102C100070BD6068B0F5827FF4D0E561F2E784F8BA
:102C20005050204600F044F8022084F851002068FB
:102C3000016821F040010160A088218900F48270C0
:102C400001F404410843A18901F400610843217C97
:102C500001F002010843217D01F001010843218BAD
:102C600001F400710843217F01F03801084394F812
:102C7000201001F080010843218D01F40051084328
:102C800021680860A069042101EA104094F824102A
:102C900001F010010843216848602068C16921F4EF
:102CA0000061C1616565012084F85100002070BD9C
:102CB00010B586B0044614216846FDF73FFB144961
:102CC0002068884221D113480021026842F4005252
:102CD0000260006800F4005005900E481438026845
:102CE00042F010020260006800F0100005904FF4FE
:102CF000835000900220CDE90101032003900520BC
:102D0000049069460448FFF78BFA06B010BD000036
:102D10000034014044380240001002402DE9F84FD1
:102D2000044690F8500000271D46164689460128A3
:102D30000DD04FF0010B84F850B0FFF791FB8046A7
:102D400094F85100BA46012804D0022793E00220EB
:102D5000BDE8F88FB9F1000F73D0002E71D00320B9
:102D600084F85100C4F854A0C4F83090A686E686D2
:102D7000C4F838A0A4F83CA0A4F83EA0C4F844A02D
:102D8000C4F840A0A068B0F5004F09D120680168E0
:102D900021F0400101602068016841F48041016038
:102DA00020680168490603D4016841F040010160D0
:102DB000E068B0F5006F606803D030B3012E24D016
:102DC00041E008B1012E1CD1206B21680088C86049
:102DD00006E020688168890709D5216B0988C160F0
:102DE000206B801C2063E08E401EE08609E0FFF728
:102DF00037FBA0EB0800A84202D3681C01D031E0E9
:102E00007DB3E08E0028E4D120E0206B21680078BB
:102E1000087306E020688168890709D5216B097865
:102E20000173206B401C2063E08E401EE0860AE0A8
:102E3000FFF716FBA0EB0800A84203D3681C02D0E2
:102E400010E017E06DB1E08E0028E3D1424629463C
:102E5000204601F019FD08B120206065A06818B176
:102E600006E0FFE7032706E02068C168806800905D
:102E7000606D00B1012784F851B084F850A0384645
:102E800066E72DE9F84F044690F8500000270A9EA7
:102E90001D4692468B464FF0010901280ED00120B5
:102EA00084F85000FFF7DCFA804694F8510061681E
:102EB00001280CD0B1F5827F07D102E00220BDE8E5
:102EC000F88FA16809B9042801D00227C2E0BBF13C
:102ED000000F27D0BAF1000F24D01DB394F8510091
:102EE000042802D0052084F8510000206065C4F851
:102EF00038A0E587A587C4F830B0E586A5862064AC
:102F0000606420680168490603D4016841F040010B
:102F10000160E068B0F5006F606805D0E8B3012D8E
:102F200046D07FE0012795E008B1012D39D1206B13
:102F300021680088C860206B801C2063E08E401EE2
:102F4000E0862EE02068816889070FD5E18E69B19F
:102F5000B9F1010F0AD1216B0988C160206B801C77
:102F60002063E08E401EE0864FF0000920688168F3
:102F7000C9070CD0E18F51B1C068A16B0880A06B6C
:102F8000801CA063E08F401EE0874FF00109FFF72F
:102F900067FAA0EB0800B04200E009E001D3701C22
:102FA00050D1E08E0028CDD1E08F0028CAD13FE07B
:102FB000206B216800780873206B401C2063E08E32
:102FC000401EE0862EE02068816889070FD5E18EDB
:102FD00069B1B9F1010F0AD1216B09780173206B36
:102FE000401C2063E08E401EE0864FF00009206800
:102FF0008168C9070CD0E18F51B1C068A16B08701E
:10300000A06B401CA063E08F401EE0874FF00109D9
:10301000FFF726FAA0EB0800B04202D3701C01D0E3
:1030200010E07EB1E08E0028CDD1E08F0028CAD11B
:1030300042463146204601F027FC28B101272020D6
:10304000606507E0032705E0A06818B92068C1683B
:1030500080680090012084F85100002084F850001E
:1030600038462CE77047704710B590F83C20012A8D
:1030700022D0012280F83C20CA688C6822F4407279
:1030800022434C6822F4806222430C6822F40062DE
:1030900022430C6922F4805222434C6922F40052EC
:1030A0002243C969002322F480420A4301684A642A
:1030B00080F83C30002010BD022010BD70B590F8A3
:1030C0003C20012A32D0012480F83C40022280F8C2
:1030D0003D2003685A689D6822F070060A683243F2
:1030E0005A60134B02689A4214D0B2F1804F11D04B
:1030F000104B9A420ED0104B9A420BD00F4B9A4273
:1031000008D00F4B9A4205D00E4B9A4202D00E4B7C
:103110009A4204D1496825F080031943916080F8F0
:103120003D40002180F83C10084670BD022070BD73
:10313000000001400004004000080040000C004076
:1031400000040140004001400018004010B5040098
:1031500003D094F83D0010B107E0012010BD00201D
:1031600084F83C00204600F01FF8022084F83D005F
:10317000211D206801F0AAFC012084F8460084F893
:103180003E0084F83F0084F8400084F8410084F851
:10319000420084F8430084F8440084F8450084F831
:1031A0003D00002010BD000008B5006811498842AC
:1031B00009D11148016841F004010160006800F084
:1031C0000400009008BD0D498842FBD10A48001D4B
:1031D000016841F0020101600068002200F0020075
:1031E000009005212D20FFF7D9F9BDE808402D20DA
:1031F000FFF7C6B900080040403802400004014013
:1032000090F83D10012901D001207047022180F87B
:103210003D100168CA6842F00102CA6000681149A5
:10322000884214D0B0F1804F11D00F4988420ED09F
:103230000E4988420BD00E49884208D00D49884279
:1032400005D00D49884202D00C49884204D18168DA
:1032500001F00701062903D0016841F00101016076
:1032600000207047000001400004004000080040BA
:10327000000C0040000401400040014000180040E4
:1032800070B5044690F83C000025012817D00126AF
:1032900084F83C60022084F83D002068826822F0B7
:1032A000770222F47F4282600868502838D00DDC13
:1032B00020284FD005DC90B3102811D14AE002201D
:1032C00070BD302846D040280AD13BE060282FD07E
:1032D00070280DD0B0F5805F03D0B0F5005F12D03C
:1032E000012584F83D60002084F83C00284670BD2C
:1032F000CB68D1E90121206801F059FC2068816880
:1033000041F0770109E0CB68D1E90121206801F0A3
:103310004EFC2068816841F480418160E1E719E05A
:10332000CA684968206801F017FD5021206806E04E
:10333000CA684968206801F020FD6021206801F01A
:1033400040FCCEE7CA684968206801F005FD4021CD
:103350002068F4E7226801461046F0E7704770B530
:103360000446006801694FF00005C943890715D478
:10337000C168C943890711D4E91E01610120207782
:10338000206880698007204602D0FFF7E7FF04E04D
:1033900000F0DAF8204600F06CF925772068016922
:1033A000C943490717D4C168C943490713D46FF00B
:1033B00004010161022020772068806910F4407FB9
:1033C000204602D0FFF7CAFF04E000F0BDF8204617
:1033D00000F04FF9257720680169C943090716D421
:1033E000C168C943090712D46FF0080101610420C4
:1033F00020772068C0698007204602D0FFF7AEFF23
:1034000004E000F0A1F8204600F033F925772068A9
:103410000169C943C90617D4C168C943C90613D491
:103420006FF010010161082020772068C06910F456
:10343000407F204602D0FFF791FF04E000F084F8BF
:10344000204600F016F9257720680169C943C907AD
:1034500008D1C168C943C90704D1891E016120464A
:1034600000F06CF920680169C943090609D4C168F4
:10347000C943090605D46FF0800101612046FFF7BA
:10348000F1FD20680169C943490609D4C168C943EF
:10349000490605D46FF040010161204600F058F95B
:1034A00020680169C94389060BD4C168C9438906EC
:1034B00007D46FF0200101612046BDE87040FFF79E
:1034C000D2BD70BD10B586B0044614216846FCF725
:1034D00035FF2368174C002117480222A34210D160
:1034E000036843F008030360006800F008000590DB
:1034F00090030090CDE90121CDE9031269460F4800
:1035000013E00F4CA34212D1036843F480730360AD
:10351000006800F48070059084200090CDE90121BE
:103520000320CDE9031069460648FEF779FE06B090
:1035300010BD00000008004030380240000C02407E
:103540000004014000200240704770B5044690F826
:103550003C0000260D4601280FD0012084F83C00D5
:103560006AB1042A1DD0082A2FD00C2A3FD0012688
:10357000002084F83C00304670BD022070BD2068F9
:1035800001F028FB2068816941F008018161206811
:10359000816921F004018161206881692A691143F0
:1035A00011E0206801F046FB2068816941F4006168
:1035B00081612068816921F480618161206881696D
:1035C0002A6941EA02218161D2E7206801F068FBA3
:1035D0002068C16941F00801C1612068C16921F01A
:1035E0000401C1612068C1692A69114311E02068A2
:1035F00001F08AFB2068C16941F40061C161206863
:10360000C16921F48061C1612068C1692A6941EA08
:103610000221C161ACE710B5040003D094F83D006D
:1036200010B107E0012010BD002084F83C002046C6
:1036300000F01EF8022084F83D00211D206801F0F2
:1036400045FA012084F8460084F83E0084F83F00E3
:1036500084F8400084F8410084F8420084F8430074
:1036600084F8440084F8450084F83D00002010BD33
:103670007047704710B50446022249B104290ED0A4
:10368000082913D094F84100012816D0012010BD5C
:1036900094F83E000128F9D184F83E200FE094F818
:1036A0003F000128F2D184F83F2008E094F8400060
:1036B0000128EBD184F8402001E084F84120012268
:1036C000206801F067FA16492068164A884201D03E
:1036D000904203D1436C43F4004343642068884222
:1036E00013D0B0F1804F10D00F4988420DD00F4950
:1036F00088420AD00E49884207D0904205D00D4931
:10370000884202D00C49884204D1816801F0070147
:10371000062903D0016841F001010160002010BDBD
:103720000000014000040140000400400008004087
:10373000000C0040004001400018004000680349B0
:10374000884201D1FEF792BE704700000020004081
:103750007047704710B504460068406994F83D1002
:10376000C0F3C010212911D180B12068143050E875
:10377000001F21F0800140E80012002AF5D1606BA3
:1037800008B1FEF7B2FA204601F000FC206840695B
:1037900094F83E10C0F38010222911D180B1206826
:1037A000143050E8001F21F0400140E80012002AC8
:1037B000F5D1A06B08B1FEF798FA204601F0BFFBE7
:1037C000002010BD70470000F8B501680446086885
:1037D000CA684B6910F00F0F4FF0000559D003F085
:1037E000010602F49077374365D0C10705D0D105B3
:1037F00003D5216C41F001012164410705D5D907AA
:1038000003D0216C41F002012164810705D5D9075D
:1038100003D0216C41F004012164010707D502F0B7
:103820002001314303D0216C41F008012164216C57
:1038300000293AD0800604D5900602D5204601F032
:10384000B3FB20684069216CC0F38010090700D4E5
:1038500060B3204601F073FB20684069400621D523
:103860002068143050E8001F21F0400140E80012A9
:10387000002AF5D1A06BA8B16C490165A06BFEF7D9
:103880007DFA002811D0A06B016D01B0BDE8F040B9
:10389000084783060FD593060DD52046BDE8F840AE
:1038A00001F082BB2046FFF78DFFF8BD2046FFF7F1
:1038B00089FF2564F8BD266B2023012E79D1C60629
:1038C00077D5D60675D508684868009048694006DF
:1038D00040D5A16B086840680004000CEAD0A28DB6
:1038E0008242E7D9E085C869B0F5807F2DD0206895
:1038F0000C3050E8001F21F4807140E80012002ACB
:10390000F5D12068143050E8001F21F0010140E893
:103910000012002AF5D12068143050E8001F21F071
:10392000400140E80012002AF5D184F83E302563BA
:1039300020680C3050E8001F21F0100140E8001210
:10394000002AF5D1A06BFEF7D0F9A08DE18D401AC9
:1039500081B229E0A08DE18D401A81B2E08D00286E
:10396000A8D00029A6D020680C3050E8002F22F4FF
:10397000907240E80026002EF5D12068143050E8FF
:10398000002F22F0010240E80026002EF5D184F835
:103990003E30256320680C3050E8002F22F01002E2
:1039A00040E80023002BF5D12046FFF7D2FEF8BDFA
:1039B000FFE705062BD5150629D594F83D002128EB
:1039C000F5D1A068B0F5805F01D12069B0B1206A5F
:1039D000411C2162216800784860E08C401E000490
:1039E000000CE084E3D12068C16821F08001C1604F
:1039F0002068C16841F04001C160D8E7206A0088B2
:103A0000C0F308004860206A801C2062E5E7400699
:103A1000CDD55006CBD5CA68204622F04002CA60F8
:103A200084F83D3000F0A1FAC1E70000494E0008DB
:103A300070B5040004D094F83D00002510B106E0F4
:103A4000012070BD84F83C50204600F023F824206B
:103A500084F83D002068C16821F40051C16020460F
:103A600001F002FB2068016921F4904101612068A6
:103A7000416921F02A0141612068C16841F4005187
:103A8000C1602564202084F83D0084F83E000020B9
:103A900070BD00002DE9F04F87B00546142168463F
:103AA000FCF74CFCAA48DFF8A4822B680024A84944
:103AB000103802260322A74F4FF0080C434521D1AE
:103AC0000B6843F080430B60096801F08041059169
:103AD000016841F0100101600068CDE9024200F088
:103AE00010000590D001CDE900066946CDF810C060
:103AF0003846FEF795FB002205215220FEF74EFDC9
:103B0000522022E0DFF85082434523D10B6843F076
:103B100000430B60096801F000410591016841F024
:103B2000100101600068CDE9002600F01000CDE929
:103B300004C0CDE9024269463846FEF771FB002217
:103B400005215320FEF72AFD5320FEF719FD07B08B
:103B5000BDE8F08FDFF80482DFF8F4E107270EF10B
:103B6000040E4FF480694FF4807A4FF4803B434554
:103B70004ED1DEF8003043F01003CEF80030DEF80E
:103B8000001001F010010591016841F0020101608F
:103B9000016801F002010591016841F00101016035
:103BA0000068CDE9024200F0010005908020CDE9D7
:103BB00000069046694604976948FEF731FB4FF4CA
:103BC0000070CDE90006CDE90248694604976548D2
:103BD000FEF726FB654E644806F1180130604FF091
:103BE0000060C6E90104C6E90349746181E8100C6C
:103BF00030467462FEF7A4F908B1FDF70CFBAE6322
:103C0000002207212520B563FEF7C8FC25209CE78C
:103C1000DFF85C81434538D10B6843F400330B6017
:103C2000096801F400310591016841F00801016063
:103C30000068CDE9024200F0080005906020CDE95F
:103C40000006694604974B48FEF7EAFA474E4A4891
:103C5000603606F1180330604FF00060C6E90104D9
:103C6000C6E90349746183E8100C30467462FEF7BC
:103C700067F908B1FDF7CFFAAE63002207212620CD
:103C8000B563FEF78BFC26205FE7DFF8F080434545
:103C90001BD10B6843F480230B60096801F4802179
:103CA0000591016841F0080101600068CDE9024218
:103CB00000F0080005904FF44070CDE90006694619
:103CC00004972C48FEF7ACFA41E72D498B42FBD113
:103CD000DEF8003043F02003CEF80030DEF80010AC
:103CE00001F020010591016841F040010160006888
:103CF000CDE9024200F0400005904FF48440CDE948
:103D000000066946CDF810C01E48FEF789FA174E26
:103D10001548C036183830608005C6E90104C6E988
:103D2000034906F11801746181E8100C3046746291
:103D3000FEF706F908B1FDF76EFAAE630022062120
:103D40004720B563FEF72AFC4720FEE600780040D6
:103D50004038024000100240007C0040001001404A
:103D6000000402400000024040640240780B002042
:103D700000440040000C02408860024000480040BF
:103D8000001401400018024090F83E30202B0ED164
:103D900059B152B190F83C30012B08D0012380F882
:103DA0003C300023036301F0E5B901207047022095
:103DB000704790F83E30202B0ED159B152B190F897
:103DC0003C30012B08D0012380F83C3000230363F2
:103DD00001F01ABA012070470220704738B5044636
:103DE0002748844211D127480122264900788DF8BE
:103DF00000002348FFF7DDFF234801220168491C2A
:103E000001606946214807F01CFB2148844209D122
:103E100020480021007804F0A5FC01221D491C481F
:103E2000FFF7C7FF16488838844228D100211A4A74
:103E3000E43853189B784354491C1829F9DB90ED5A
:103E4000000A1649B1EE400A81ED000A144990EDCE
:103E5000010A81ED000A134990ED020A81ED000A82
:103E6000114990ED030A81ED000A104990ED040A12
:103E700081ED000A90ED050A0D4880ED000A38BD7D
:103E8000340B00206001002090000020344E002000
:103E9000E0090020940100202C050020640000208F
:103EA000680000206C0000205C0000206000002002
:103EB00070000020704700002DE9F843044690F898
:103EC0003D001F4616460D4620284CD1C5B1BEB157
:103ED00094F83C00012846D0012084F83C004FF0C3
:103EE0000008C4F84080212084F83D00FEF7B8FAAD
:103EF000A6848146E684A068B0F5805F03D004E024
:103F00000120BDE8F883206928B12E465FF0000546
:103F100084F83C800EE00026FAE78021204601F07C
:103F200090F9A0B9AEB116F8010B21684860E08C99
:103F3000401EE084E08C4B464FF0000200970028C2
:103F4000EBD14FF04001204601F07BF930B1032066
:103F5000D7E735F8020BC0F30800E6E7202084F825
:103F60003D000020CDE70220CBE77047FEE70000D0
:103F700010B500F0C1FBFDF781FABDEEC00A0E4C92
:103F800084ED000A00F0EAFBFDF778FABDEEC00A06
:103F900084ED010A00F014FCFDF770FABDEEC00AD2
:103FA00084ED020A00F03EFCFDF768FABDEEC00A9F
:103FB00084ED030A10BD00002C06002010B5154C3E
:103FC000012202212046FEF745FA01220421204663
:103FD000FEF740FA012208212046FEF73BFA0122B3
:103FE00010212046FEF736FA012220212046FEF756
:103FF00031FA012240212046FEF72CFA01228021CD
:104000002046FEF727FA20460122BDE810401102A3
:10401000FEF720BA001802400F4810B50D490160A4
:104020000521416000214FF400328160C0E9031294
:10403000520142610176012242768176C176017792
:104040004177FDF7C6FC002803D0BDE81040FDF71E
:10405000E2B810BD00640040900800200F4810B581
:104060000D4901600521416000214FF4003281605B
:10407000C0E9031252014261017601224276817643
:10408000C17601774177FDF7A4FC002803D0BDE895
:104090001040FDF7C0B810BD00680040B80800200F
:1040A000154808B5016841F480010160016801F418
:1040B00080010091016841F4001101600068002254
:1040C00000F40010009005211020FEF767FA102080
:1040D000FEF756FA002205213920FEF75FFA392053
:1040E000FEF74EFA002205213A20FEF757FABDE806
:1040F00008403A20FEF744BA3038024010B59EB06E
:1041000000201C901D901CA807F006FF174C1C22D5
:10411000174920616846FCF7F8F80021684607F067
:1041200003FF134920601C221C3107A8FCF7EDF89F
:10413000002107A807F0F8FE0D4960601C22383105
:104140000EA8FCF7E2F800210EA807F0EDFE0849E2
:10415000A0601C22543115A8FCF7D7F8002115A83F
:1041600007F0E2FEE0601EB010BD00007800002005
:1041700070FC00082DE9F04F87B014216846FCF769
:10418000DDF855480024016841F010010160016824
:1041900001F010010591016841F0400101600168E2
:1041A00001F040010591016841F0010101600168E1
:1041B00001F001010591016841F00201016001680F
:1041C00001F002010591016841F0080101600168F8
:1041D00001F008010591016841F4807101600168F6
:1041E00001F480710591016841F0200101600168CE
:1041F00001F020010591016841F080010160016832
:1042000001F080010591016841F00401016000683E
:10421000DFF8C89000F004004FF40165059000221B
:1042200029464846FEF716F9DFF8B4A044F2030722
:10423000002239465046FEF70DF9DFF8A8B00122FA
:1042400011465846FEF706F90022FE212648FEF7E1
:1042500001F94FF4E058012241462448FEF7FAF8EC
:10426000002204212248FEF7F5F802260095CDE948
:1042700002640125694648460195FDF7D1FFCDE965
:104280000264CDE9007569465046FDF7C9FF009507
:10429000CDE90154694658460394FDF7C1FFFE205D
:1042A00003948DE8610069460F48FDF7B9FFCDF82A
:1042B0000080CDE9015469460C480394FDF7B0FF36
:1042C000042003948DE8610069460948FDF7A8FFC2
:1042D00007B0BDE8F08F0000303802400010024007
:1042E000001402400020024000180240001C02405E
:1042F00000080240114810B50F4901604FF4827167
:10430000416000214FF40062C0E902120122C0E9BD
:104310000412520282612022C0E9072141628162B7
:104320000A21C162FEF766FC002803D0BDE81040F8
:10433000FCF771BF10BD000000340140E008002010
:1043400010B58EB000240794089409940A940B9435
:104350001C2168460C94FBF7F1FF1F481D490160C2
:104360005921C0E9011442F20F71C0E90314802100
:104370008161FEF7EBFE08B1FCF74DFF4FF4805072
:10438000079007A91448FEF77BFF08B1FCF743FF2D
:104390001148FFF740F908B1FCF73DFF0B940BA95A
:1043A0000D480C94FEF78AFE08B1FCF734FF60203C
:1043B000CDE9000402940C22694607480494FFF7F3
:1043C000C4F808B1FCF727FF0348FFF77BF80EB0ED
:1043D00010BD0000000800403809002010B596B05C
:1043E00000240F9410941194129413941C21684685
:1043F0001494FBF7A3FF202107A8FBF79FFF2D488C
:104400002B4901605921C0E9011449F63F41C0E937
:1044100003148021C0E90541FEF798FE08B1FCF7BE
:10442000FAFE4FF480500F900FA92248FEF728FFA4
:1044300008B1FCF7F0FE1F48FFF7EDF808B1FCF7F4
:10444000EAFE139413A91B481494FEF737FE08B133
:10445000FCF7E1FE6020CDE900040294039404948B
:1044600005940822694613480694FFF76EF808B1D0
:10447000FCF7D1FE0C2269460E48FFF766F808B13A
:10448000FCF7C9FE0794089409944FF400500A946D
:10449000CDE90B4007A907480E94FEF7E5FD08B1EA
:1044A000FCF7B9FE0348FFF70DF816B010BD000089
:1044B00000040140800900200C4810B50A49016041
:1044C0004FF4E1314160002181600C22C160C0E9FC
:1044D00004128161C161FFF7ABFA002803D0BDE887
:1044E0001040FCF798BE10BD00780040E0090020A5
:1044F0000C4810B50A4901604FF4E13141600021D8
:1045000081600C22C160C0E904128161C161FFF7C2
:104510008FFA002803D0BDE81040FCF77CBE10BD28
:10452000007C0040240A00200C4810B50A490160B4
:104530000B494160002181600C22C160C0E9041276
:104540008161C161FFF774FA002803D0BDE8104013
:10455000FCF761BE10BD000000100140680A002099
:10456000A08601000C4810B50A4901604FF4E13102
:104570004160002181600C22C160C0E904128161A8
:10458000C161FFF755FA002803D0BDE81040FCF7E1
:1045900042BE10BD00440040AC0A00200C4810B5DB
:1045A0000A4901604FF4E1314160002181600C2231
:1045B000C160C0E904128161C161FFF739FA0028C6
:1045C00003D0BDE81040FCF726BE10BD00480040F7
:1045D000F00A00200C4810B50A4901604FF4E1319F
:1045E0004160002181600C22C160C0E90412816138
:1045F000C161FFF71DFA002803D0BDE81040FCF7A9
:104600000ABE10BD00140140340B0020FEE7FEE797
:1046100030B40B4C44660B4CDFED0B1A8466C0EDD6
:104620000E1AC0ED0D1AC0ED0F1AC0ED101AC0ED34
:10463000111AC0ED121AC0ED131A30BC07F02EBECD
:104640009DC20008ABC200080000000010B5FFF7D3
:10465000B5FC284C002202212046FDF7FBFE642019
:1046600007F04EFCFFF7AAFC002204212046FDF7CC
:10467000F1FE642007F044FCFFF7A0FC00220821B3
:104680002046FDF7E7FE642007F03AFCFFF796FCB2
:10469000002210212046FDF7DDFE642007F030FCEB
:1046A000FFF78CFC002220212046FDF7D3FE64207A
:1046B00007F026FCFFF782FC002240212046FDF790
:1046C000C9FE642007F01CFCFFF778FC0022802163
:1046D0002046FDF7BFFE642007F012FCFFF76EFCDA
:1046E0000022A1152046FDF7B5FEBDE8104064206C
:1046F00007F006BC0018024038B5154C4FF6FF70A5
:10470000144D2080002202212846FDF7A3FE6423D9
:10471000012221461048FEF701FB01220221284612
:10472000FDF798FE002202212846FDF793FE642043
:10473000A21C00900123911E0748FEF7A2FB012254
:1047400002212846FDF786FE6088C0F30D0038BDC3
:104750009001002000140240E008002038B5154CFC
:104760004FF6FF70144D2080002210212846FDF7DF
:1047700071FE6423012221461048FEF7CFFA012280
:1047800010212846FDF766FE002210212846FDF77D
:1047900061FE6420A21C00900123911E0748FEF7D1
:1047A00070FB012210212846FDF754FE6088C0F3FB
:1047B0000D0038BD9001002000100240E0080020EC
:1047C00038B5154C4FF6FF70144D208000220121A2
:1047D0002846FDF73FFE6423012221461048FEF7DC
:1047E0009DFA012211462846FDF734FE00220121E0
:1047F0002846FDF72FFE6420A21C00900123911E85
:104800000748FEF73EFB012211462846FDF722FE2F
:104810006088C0F30D0038BD9001002000140240F4
:10482000E008002038B5154C4FF6FF70144D20807D
:10483000002204212846FDF70DFE642301222146B3
:104840001048FEF76BFA012204212846FDF702FE0C
:10485000002204212846FDF7FDFD6420A21C0090E3
:104860000123911E0748FEF70CFB01220421284674
:10487000FDF7F0FD6088C0F30D0038BD9001002009
:1048800000080240E008002038B504461248134BE7
:104890000068B0FBF3F04FF47A73584300906068FF
:1048A000B0F5827F0DD10B46009200228021204678
:1048B00000F016F870B1606D40F0200060650320D4
:1048C00038BD009830B1401E009020688068C04319
:1048D0000006F6D5002038BDA000002000366E018D
:1048E0002DE9F8431E46914688460446089DFDF78B
:1048F000B7FD401B351AFDF7B3FD07462548006894
:10490000C0F3CB30684338E0701C37D0FDF7A8FD0A
:10491000C01BA84203D215B1009860B32CE02068F8
:10492000416821F0E00141606068B0F5827F0BD101
:10493000A068B0F5004F02D0B0F5806F04D12068B8
:10494000016821F040010160A06AB0F5005F09D163
:104950002068016821F4005101602068016841F479
:1049600000510160012084F85100002084F85000BB
:104970000320BDE8F8830025401E00902068816870
:1049800038EA010004D000214945BDD10020F0E7FC
:104990000121F9E7A000002010B50B4C00220121F5
:1049A0002046FDF757FD002202212046FDF752FD6B
:1049B000002210210548FDF74DFD0022BDE8104002
:1049C00004210348FDF746BD0014024000100240D8
:1049D0000008024010B5502080F31188BFF34F8FBC
:1049E000BFF36F8F0AF0F2FF18B104494FF0805007
:1049F0000860002080F3118810BD000004ED00E085
:104A000030B593B030216846FBF798FC14210CA810
:104A1000FBF794FC20480025016841F080510160BB
:104A2000006800F0805011901C48016841F440413A
:104A300001600068022400F44040119001200390BE
:104A400010200490009406940820CDE90750B4206B
:104A5000CDE9090404200B906846FDF715FF08B165
:104A600072B6FEE7FDF7CCFD08B172B6FEE70CA901
:104A70000F2081E831004FF4A0500F904FF4805088
:104A8000109005210CA8FDF7F3FD002801D072B6A7
:104A9000FEE713B030BD0000403802400070004017
:104AA0000248016841F470010160704788ED00E040
:104AB00010B50448FEF753FCBDE810400248FEF76D
:104AC0004EBC000080090020B00C0020F0B5026848
:104AD000254C264D264E274F274B4FF0804CA042A9
:104AE00009D0604507D0A84205D0B04203D0B842F3
:104AF00001D0984204D122F0700E4A6842EA0E02B8
:104B0000A0421BD0604519D0A84217D0B04215D0A2
:104B1000B84213D0984211D0184DA8420ED0184D6B
:104B2000A8420BD0174DA84208D0174DA84205D077
:104B3000164DA84202D0164DA84203D122F440756A
:104B4000CA682A434D6922F080022A4302608A68BB
:104B5000C2620A688262A04201D0984201D109690A
:104B6000016301214161F0BD0000014000040040EB
:104B700000080040000C00400004014000400140DB
:104B8000004401400048014000180040001C004063
:104B90000020004010B501F01F030121046A994074
:104BA0008C430462016A9A401143016210BD10B542
:104BB000846842EA032224F47F440A432243826049
:104BC00010BD826822F070020A4342F00701816042
:104BD00070470000F0B5026A22F001020262036A27
:104BE00042688469124E24F073050C682C4323F04C
:104BF00002058B682B430D4DA84201D0B04205D170
:104C000023F00807CB683B4323F00403A84201D0FC
:104C1000B04205D14D6922F4407215438A692A4396
:104C200042608461496841630362F0BD0000014055
:104C300000040140F0B5026A22F010020262026A2A
:104C4000436884690D6824F4E64444EA05248D68C9
:104C500022F0200242EA05120F4D104EA84201D068
:104C6000B04206D1CF6822F0800242EA071222F059
:104C70004002A84201D0B04207D14D6923F44063FD
:104C800043EA85038D6943EA85034360846149688B
:104C900081630262F0BD0000000001400004014099
:104CA000F0B5026A22F480720262026A4368C46943
:104CB00022F4007224F073050C68124E2C438D68A8
:104CC00042EA05220E4DA84201D0B04206D1CF687B
:104CD00022F4006242EA072222F48062A84201D054
:104CE000B04207D14D6923F4405343EA05138D695F
:104CF00043EA05134360C4614968C1630262F0BDC1
:104D0000000001400004014030B5026A22F48052E4
:104D10000262046A4268C3690D6823F4E64343EA09
:104D200005238D6824F4005444EA0534084DA84254
:104D300002D0084DA84204D14D6922F4804242EAD3
:104D400085124260C36149680164046230BD00009D
:104D5000000001400004014010B5036A046A24F019
:104D600001040462846924F0F00444EA021423F08C
:104D70000A020A438461026210BD10B5036A23F07F
:104D8000100303628369046A23F4704343EA023226
:104D900024F0A00343EA01118261016210BD00000A
:104DA0002DE9F04387B0FFF73DFDFCF767FB10EE00
:104DB000100AFBF7BAFC89468046FFF701FDFCF7B5
:104DC0005DFB10EE100AFBF7B0FC0F460646FFF73E
:104DD000C5FCFCF753FB10EE100AFBF7A6FC0D46D2
:104DE0000446FFF789FCFCF749FB10EE100AFBF7BD
:104DF0009CFC8DE8F00341EC100B04A053EC102B4D
:104E000000F0D8FA07B0BDE8F0830000313A25374A
:104E10002E33662020323A25372E336620333A254A
:104E2000372E33662020343A25372E33660D0A009C
:104E30000148FEF7C9BC0000E00900200148FEF768
:104E4000C3BC0000240A002010B5806B0021C1857E
:104E5000C184FEF7B7FC10BD70B5846B2068406953
:104E600094F83D10C0F3C0100025212904D118B1D9
:104E7000E584204600F08AF82068406994F83E10E6
:104E8000C0F38010222904D118B1E585204600F036
:104E900056F8206C40F0100020642046FEF792FC8B
:104EA00070BD10B50146806B09680968C9052FD42B
:104EB0000021C18501680C3151E8002F22F4807275
:104EC00041E80023002BF5D10168143151E8002F8F
:104ED00022F0010241E80023002BF5D101681431D2
:104EE00051E8002F22F0400241E80023002BF5D1C9
:104EF000202180F83E10016B012909D101680C3195
:104F000051E8002F22F0100241E80023002BF5D1D8
:104F1000016B012902D0FEF761FF10BD818DFEF704
:104F200018FC10BD10B5806B016B012902D0FEF793
:104F3000C1FF10BD818D4908FEF70BFC10BD016853
:104F40000C3151E8002F22F4907241E80023002B2D
:104F5000F5D10168143151E8002F22F0010241E837
:104F60000023002BF5D1016B012909D101680C3117
:104F700051E8002F22F0100241E80023002BF5D168
:104F8000202180F83E1000210163704701680C3138
:104F900051E8002F22F0C00241E80023002BF5D198
:104FA000202180F83D10704708B590F83E10222966
:104FB00001D0022008BD82684FF480539A4201D18B
:104FC000016921B1816A9A421BD04AB10AE00268A4
:104FD000816A5268C2F308020A80816A891C08E06B
:104FE000026972B10268526802F07F020A70816A37
:104FF000491C8162C18D491E0904090CC18503D079
:1050000019E002685268F1E70168CA6822F02002DC
:10501000CA600168CA6822F48072CA6001684A697D
:1050200022F001024A61202180F83E10016B012923
:1050300003D0FEF7D3FE002008BD00210163016804
:105040000C3151E8002F22F0100241E80023002B20
:10505000F5D101680A68D20602D50A68496800914C
:10506000818DFEF776FBE6E770B5044600680169BE
:10507000E26821F44051114301612169A068E269AD
:1050800008436169114308432168CA6849F20C6307
:105090009A430243CA6020684169A26921F44071C1
:1050A0001143416131492068884202D03049884229
:1050B00002D1FDF7A7FB01E0FDF794FBE2690023B5
:1050C000192164253226B2F5004F626828D0A0FB72
:1050D0000101930F9200FBF7E7F80146B0FBF5F0F2
:1050E0006FF01802504301EB800006EB0010B0FB9C
:1050F000F5F000F0F002B1FBF5F002EB0012B1FBAD
:10510000F5F06FF01803584301EB800006EB001038
:10511000B0FBF5F000F00F0021681044886070BD0E
:10512000A0FB010192185B41FBF7BEF80146B0FB02
:10513000F5F00201B1FBF5F06FF01803584301EBF5
:10514000800006EBC000B0FBF5F000F0F80002EBC9
:105150004002B1FBF5F0584301EB800006EBC000C4
:10516000B0FBF5F000F00700D6E7000000100140AA
:105170000014014038B5816282850025134604463B
:105180000564222084F83E00A26B1C48D063A26B09
:105190001B481064A26B1B48D064A06B0A460565CF
:1051A0002168A06B091DFCF758FF20680168406862
:1051B000009084F83C50206948B120680C3050E8D9
:1051C000001F41F4807140E80012002AF5D12068E8
:1051D000143050E8001F41F0010140E80012002A9D
:1051E000F5D12068143050E8001F41F0400140E83C
:1051F0000012002AF5D1002038BD0000A34E00089F
:10520000254F0008594E000881628285C285002121
:105210000164222280F83E2080F83C10016921B10F
:105220000168CA6842F48072CA6001684A6942F043
:1052300001024A610068C16841F02001C16000209C
:1052400070472DE9F041984617460E460446069DE4
:1052500027E0681C25D02DB1FDF702F9A0EB08006E
:10526000A8421ED920680C3050E8001F21F4D071EC
:1052700040E80012002AF5D12068143050E8001FE1
:1052800021F0010140E80012002AF5D1202084F825
:105290003D0084F83E00002084F83C000320BDE877
:1052A000F0812068006836EA000004D00020B8428F
:1052B000CFD00020F3E70120F9E7000010B5044843
:1052C00009F076FBBDE810400148FEF77DBA00000A
:1052D000680A002038B52748FEF776FA254826499F
:1052E0000068884245D10168C943C90641D40168B4
:1052F0000024406800901F48FEF72CFA1F48006801
:1053000040681F4AC0F1FF00C0B210701C2828D1AD
:105310001C4B1D4800215D18AD784554491C1829C7
:10532000F9DB90ED000A1949B1EE400A81ED000A5F
:10533000174990ED010A81ED000A164990ED020A25
:1053400081ED000A144990ED030A81ED000A13492A
:1053500090ED040A81ED000A90ED050A104880EDF9
:10536000000A1470BDE83840FF2206490148FEF7E4
:105370000BBD38BDAC0A002000440040D80B002013
:10538000740000202C050020980C002064000020F0
:10539000680000206C0000205C00002060000020FD
:1053A000700000200148FEF70FBA0000340B002007
:1053B000FEE700000FB4054B10B503A9044A02989C
:1053C00001F010FF10BC5DF814FB000031B10008C3
:1053D000300200200FB47CB50C0009AD01D0611E75
:1053E00000E00021CDE90001064B6A4629460898F5
:1053F00001F0F8FE002C02D0009A002111707CBC54
:105400005DF814FBEB7800080FB4084B10B504A945
:1054100002AA039801F0E6FE044602A9002002F069
:105420006FFA204610BC5DF814FB000001790008FB
:105430007CB50C001D461646014601D0601E00E0FA
:105440000020CDE90010064B6A462946304601F09F
:10545000C9FE002C02D0009A002111707CBD000012
:10546000EB78000803B401984100009850EAC1208D
:1054700018BF04204A0D18BF40F0010040F2FF722F
:10548000B2EB515F08BF40F00200012808BF0520C1
:1054900002B070470907090E002804DB00F1E02084
:1054A00080F80014704700F00F0000F1E02080F851
:1054B000141D7047004870473C02002000000000A7
:1054C00070B59B482DED020B2DED068B079D25F049
:1054D0000044A04218DC9748844202DC0AD10698B6
:1054E00040B19DED060BBDEC068B02B0BDE87040EF
:1054F00001F0E6B9002DCCBF9FED8F0B9FED900B17
:10550000BDEC068B02B070BD8F48A04215DD8F4800
:10551000A042D8BF4FF0FF3458DD9DED060B51EC93
:10552000100BFFF79FFF042808BF01F0FDF99DED68
:10553000060BBDEC068B02B070BD9DED060B51EC69
:10554000100B04F02DFCCDE9060181489FED828B04
:10555000A0423CDD8248A0421FDD00249FED82ABCB
:105560009DED060B53EC1A2B51EC100BFAF737FF9D
:105570009DED060B41EC190B53EC1A2B51EC100B63
:10558000FAF7D4FF53EC182BFAF7CAFF53EC192B98
:10559000FBF73EF8CDE9060149E09DED060B01243D
:1055A00053EC182B51EC100BFAF719FF9DED060B7D
:1055B00041EC190B53EC182B51EC100BFAF7B0FF20
:1055C00053EC192BFBF724F8CDE906012FE06848CE
:1055D000A0421FDD02249FED689B9DED060B53EC5E
:1055E000192B51EC100BFAF7A1FF53EC182BFAF71B
:1055F000F6FE9DED060B41EC180B53EC192B51EC0C
:10560000100BFAF78DFF53EC182BFBF701F8CDE9DF
:1056100006010CE09DED060B032453EC102B9FEDCF
:10562000580B51EC100BFAF7F3FFCDE906019DED95
:10563000060B53EC102B51EC100BFAF777FF41ECF3
:10564000180B53EC182BFAF771FF41EC190B4E486D
:105650000621B0EE490AF0EE690A784401F065F8D7
:1056600053EC182B51EC100BFAF760FF41EC180BC0
:105670004648B0EE490AF0EE690A0521784401F087
:1056800054F853EC192B51EC100BFAF74FFF41EC87
:10569000100B51EC180B53EC102B002C0EDAFAF710
:1056A0009EFE9DED061B53EC112BFAF73FFF9DED7F
:1056B000061B53EC112BFAF736FF35E0FAF78FFE95
:1056C0009DED061B53EC112BFAF730FF41EC100B4C
:1056D0002F48784400EBC40090ED001B51EC100BF8
:1056E00053EC112BFAF71CFF9DED061B53EC112B0D
:1056F000FAF716FF41EC100B2648784400EBC40083
:1057000090ED001B51EC100B53EC112BFAF70BFF33
:1057100041EC100B002DA2BFBDEC068B02B070BD9A
:1057200051EC100B81F0004141EC100B01E700003F
:10573000000010440000F07F182D4454FB21F93F75
:10574000182D4454FB21F9BF0000DC3F0000203E2F
:105750000000F33F00000000000000000000F03FE8
:105760000000E63F000000000000000000000040D4
:105770000080034000000000000000000000F83F2F
:10578000000000000000F0BF82B1000038B100004E
:10579000C2B000007AB0000070B56F4E2DED040B62
:1057A0002DED048B82B0DDF824C0DDE907235C42D7
:1057B0002CF000411C4341EAD474069D22F00040C5
:1057C000B44205D86C422C4340EAD474B4420BD99D
:1057D0009DED081B9DED060B02B0BDEC048B04B0E3
:1057E000BDE8704001F076B8ACF14054A4F17F649C
:1057F0001C430BD0022404EAAC7444EAD27405437F
:105800009FED578B9FED582B07D015E09DED060BB4
:1058100051EC100B02F07EF942E0002C11BF012C7C
:105820009DED060B02B0BDEC048B04BF04B070BD4F
:10583000022C38D0032C3BD00B439FED4D1B9FED2A
:105840004E0B0AD0B14218D1B04209D121F08041AB
:1058500020F08040099107900FE0002A15DA10E04F
:10586000474B7B44002C08BF93ED000B0DD0012C5F
:1058700010D0022C17D0032C1AD0B0421DD1002A10
:1058800003DAB0EE410AF0EE610A02B0BDEC048B1F
:1058900004B070BD93ED000B51EC100B81F0004192
:1058A00041EC100BF1E7B0EE480AF0EE680AECE7C5
:1058B000B0EE420AF0EE620AE7E7401A00159FEDEB
:1058C000329B3C28C8BF8DED000B17DCBCF1000FEC
:1058D000BCBF10F13C0F8DED009B0FDB9DED080B65
:1058E00053EC102B9DED060B51EC100BFAF790FECC
:1058F00004F056FA02F00EF9CDE90001B4B1012C22
:1059000010D0022C9FED220B53EC102B9DED000BC1
:1059100051EC100B19D0FAF703FE53EC182BFAF7E1
:10592000FFFDBDE7019880F0004001909DED000B68
:1059300053EC192B51EC100BFBF7E4FA04BF0220D7
:1059400001F028F89DED000B9FE7FAF7E9FD53EC15
:10595000182BFAF7E8FDA3E70000F07F0000000035
:10596000182D4454FB210940182D4454FB2109C033
:10597000182D4454FB21F9BF182D4454FB21F93F45
:10598000AAAF0000000000000000000000000000BE
:10599000075C143326A6A13C30B583B0044600F062
:1059A000E3FF9FED090B05468DED000B002221461C
:1059B0006846FBF71CF9284600F0ECFF9DED000B54
:1059C00003B030BD00000000000000000000000037
:1059D00010EE102A6FEAD25212F0FF0F1ABFB5EE86
:1059E000C00AF1EE10FA704710B501462DED028B9A
:1059F00010EE100AFBF79DF908EE100A18EE100AD7
:105A00006FEAD05010F0FF0F19D0B5EEC08AF1EE5A
:105A100010FA1EBFB0EE480ABDEC028B10BD02208A
:105A200000F0B8FF00F098FF10EE101A18EE100A00
:105A3000BDEC028B61F31E0000EE100A10BD0220C7
:105A400000F0A8FF00F080FF10EE101A18EE100A08
:105A5000BDEC028B61F31E0000EE100A10BD0000C9
:105A60002DE9F04D2DED040B2DED0E8B96B0DDE9FB
:105A70002550279CDDF890A025F0004624F0004832
:105A8000BAF1000F14BF0121002101EB4502FC49CE
:105A900053184A1093422AD3002814BF012300232D
:105AA00003EB44030B44F7498B4220D358EA00012F
:105AB0009FEDF59B76D0DFF8D8B35D4503D1BAF101
:105AC000000F05D188E0BAF1000F08BF002100D017
:105AD000012101EB450111F5001F08D8002814BF72
